{
  "contractName": "MathContract",
  "abi": [
    {
      "constant": true,
      "inputs": [
        {
          "internalType": "uint256",
          "name": "a",
          "type": "uint256"
        },
        {
          "internalType": "uint256",
          "name": "b",
          "type": "uint256"
        }
      ],
      "name": "mulAtoB",
      "outputs": [
        {
          "internalType": "uint256",
          "name": "",
          "type": "uint256"
        }
      ],
      "payable": false,
      "stateMutability": "pure",
      "type": "function"
    }
  ],
  "bytecode": "0x608060405234801561001057600080fd5b5060b88061001f6000396000f3fe6080604052348015600f57600080fd5b506004361060285760003560e01c80637768f20114602d575b600080fd5b606060048036036040811015604157600080fd5b8101908080359060200190929190803590602001909291905050506076565b6040518082815260200191505060405180910390f35b600081830290509291505056fea265627a7a723158200fa31eb5647a024450dcb4719e4a3f6d8510a33f545af10c0295e8319ddc971464736f6c63430005100032",
  "source": "// SPDX-License-Identifier: MIT\npragma solidity >=0.5 <0.8.0;\n\ncontract MathContract {\n  function mulAtoB(uint a,uint b)public pure returns (uint){\n    return a * b;\n  }\n}\n",
  "sourcePath": "/Users/xiaoyunhui/myobjects/solidiy-learn/truffle/truffle_demo/contracts/MathContract.sol",
  "compiler": {
    "name": "solc",
    "version": "0.5.16+commit.9c3226ce.Emscripten.clang"
  },
  "schemaVersion": "3.2.4",
  "updatedAt": "2020-09-02T07:42:28.313Z",
  "networkType": "ethereum",
  "devdoc": {
    "methods": {}
  },
  "userdoc": {
    "methods": {}
  }
}